:100000000C9434000C9449000C9449000C94490061
:100010000C9449000C9449000C9449000C9449003C
:100020000C9449000C9449000C9449000C9449002C
:100030000C9449000C9449000C9449000C9449001C
:100040000C9449000C9449000C9449000C9449000C
:100050000C9449000C9449000C9449000C944900FC
:100060000C9449000C94490011241FBECFEFD8E036
:10007000DEBFCDBF11E0A0E0B1E0EEE4F4E002C0ED
:1000800005900D92A63BB107D9F70E944B000C9446
:1000900025020C940000CF93DF93CDB7DEB76397B2
:1000A0000FB6F894DEBF0FBECDBF84E290E024E22D
:1000B00030E0F90120812260FC01208380E890E09B
:1000C00020E830E0F90120812168FC01208381E8EB
:1000D00090E021E830E0F90120812960FC012083D3
:1000E0001B821A82198286EB90E09D838C83898122
:1000F0009A81880F991F80509F4FFC0180819181C8
:100100008B8389819A8101969A83898388E890E01C
:100110002B81222F30E0FC013183208329813A8119
:100120008C819D818217930714F41A82198280E0D2
:1001300090E0A0E4B1E48E839F83A887B98720E094
:1001400030E04AE755E46E817F81888599850E9479
:100150009001DC01CB018A879B87AC87BD8720E0BB
:1001600030E040E85FE36A857B858C859D850E9451
:100170000A0188232CF481E090E09F878E873FC09E
:1001800020E03FEF4FE757E46A857B858C859D85AE
:100190000E948B0118164CF520E030E040E251E45B
:1001A0006E817F81888599850E949001DC01CB0159
:1001B000BC01CD010E940F01DC01CB019F878E871E
:1001C0000FC080E991E0998B888B88899989019784
:1001D000F1F7998B888B8E859F8501979F878E87F6
:1001E0008E859F85892B69F714C06A857B858C85F0
:1001F0009D850E940F01DC01CB019F878E878E8534
:100200009F859B8B8A8B8A899B890197F1F79B8BB2
:100210008A8B6DCF0E943E0108F481E008950E9410
:100220006A0188F09F5798F0B92F9927B751B0F01D
:10023000E1F0660F771F881F991F1AF0BA95C9F76A
:1002400014C0B13091F00E948401B1E008950C9483
:100250008401672F782F8827B85F39F0B93FCCF336
:10026000869577956795B395D9F73EF490958095E7
:10027000709561957F4F8F4F9F4F0895990F00089C
:10028000550FAA0BE0E8FEEF16161706E807F90768
:10029000C0F012161306E407F50798F0621B730B03
:1002A000840B950B39F40A2661F0232B242B252B84
:1002B00021F408950A2609F4A140A6958FEF811D27
:1002C000811D089557FD9058440F551F59F05F3F09
:1002D00071F04795880F97FB991F61F09F3F79F068
:1002E00087950895121613061406551FF2CF4695EA
:1002F000F1DF08C0161617061806991FF1CF86956C
:100300007105610508940895E894BB27662777274F
:10031000CB0197F908950E943E0108F48FEF0895EC
:100320000E94A3010C9414020E94060238F00E945D
:100330000D0220F0952311F00C94FD010C940302A2
:1003400011240C9485010E94620170F3959FC1F302
:10035000950F50E0551F629FF001729FBB27F00D73
:10036000B11D639FAA27F00DB11DAA1F649F6627C8
:10037000B00DA11D661F829F2227B00DA11D621F17
:10038000739FB00DA11D621F839FA00D611D221FD1
:10039000749F3327A00D611D231F849F600D211DB5
:1003A000822F762F6A2F11249F5750409AF0F1F038
:1003B00088234AF0EE0FFF1FBB1F661F771F881FA1
:1003C00091505040A9F79E3F510580F00C94FD01DB
:1003D0000C9485015F3FE4F3983ED4F386957795BE
:1003E0006795B795F795E7959F5FC1F7FE2B880F47
:1003F000911D9695879597F9089597F99F6780E8DD
:1004000070E060E008959FEF80EC089500240A9466
:100410001616170618060906089500240A941216DF
:100420001306140605060895092E0394000C11F412
:10043000882352F0BB0F40F4BF2B11F460FF04C0BF
:0E0440006F5F7F4F8F4F9F4F0895F894FFCF4F
:10044E000100010002000300050008000B000F0070
:10045E00140019001E0024002B003100380040004B
:10046E004800500058006100690072007B00840053
:10047E008D0096009E00A700AF00B700BF00C7001A
:10048E00CE00D400DB00E100E600EB00F000F4004B
:10049E00F700FA00FC00FD00FE00FF00FE00FD006C
:1004AE00FC00FA00F700F400F000EB00E600E100BB
:1004BE00DB00D400CE00C700BF00B700AF00A7001E
:1004CE009E0096008D0084007B0072006900610022
:1004DE005800500048004000380031002B00240026
:1004EE001E00190014000F000B0008000500030089
:0604FE00020001000000F5
:00000001FF
