:100000000C9434000C943E000C943E000C943E0082
:100010000C943E000C943E000C943E000C943E0068
:100020000C943E000C943E000C943E000C943E0058
:100030000C943E000C943E000C943E000C943E0048
:100040000C943E000C943E000C943E000C943E0038
:100050000C943E000C943E000C943E000C943E0028
:100060000C943E000C943E0011241FBECFEFD8E04C
:10007000DEBFCDBF0E9440000C9411020C94000022
:10008000CF93DF93CDB7DEB760970FB6F894DEBF9E
:100090000FBECDBF84E290E024E230E0F901208180
:1000A0002260FC01208380E890E020E830E0F90144
:1000B00020812168FC01208381E890E021E830E084
:1000C000F90120812960FC012083198281E08A8363
:1000D00088E890E02981222F30E0FC0131832083E1
:1000E0008A81882311F081E001C08FEF9981890F07
:1000F000898389818F3F11F41A8205C08981882301
:1001000011F481E08A8380E090E0A0E0B0E48B838A
:100110009C83AD83BE8320E030E04AE755E46B81E9
:100120007C818D819E810E947C01DC01CB018F83CB
:100130009887A987BA8720E030E040E85FE36F81C5
:10014000788589859A850E94F60088232CF481E0C1
:1001500090E09C878B873FC020E03FEF4FE757E45C
:100160006F81788589859A850E94770118164CF5EC
:1001700020E030E040E251E46B817C818D819E8102
:100180000E947C01DC01CB01BC01CD010E94FB007F
:10019000DC01CB019C878B870FC080E991E09E87B3
:1001A0008D878D859E850197F1F79E878D878B853D
:1001B0009C8501979C878B878B859C85892B69F70C
:1001C00014C06F81788589859A850E94FB00DC01C7
:1001D000CB019C878B878B859C85988B8F878F85A0
:1001E00098890197F1F7988B8F8772CF0E942A0127
:1001F00008F481E008950E94560188F09F5798F016
:10020000B92F9927B751B0F0E1F0660F771F881F1B
:10021000991F1AF0BA95C9F714C0B13091F00E9435
:100220007001B1E008950C947001672F782F882732
:10023000B85F39F0B93FCCF3869577956795B3955C
:10024000D9F73EF490958095709561957F4F8F4FCB
:100250009F4F0895990F0008550FAA0BE0E8FEEF95
:1002600016161706E807F907C0F012161306E4077A
:10027000F50798F0621B730B840B950B39F40A2673
:1002800061F0232B242B252B21F408950A2609F451
:10029000A140A6958FEF811D811D089557FD9058AF
:1002A000440F551F59F05F3F71F04795880F97FB3A
:1002B000991F61F09F3F79F08795089512161306F4
:1002C0001406551FF2CF4695F1DF08C01616170623
:1002D0001806991FF1CF8695710561050894089558
:1002E000E894BB2766277727CB0197F908950E94EA
:1002F0002A0108F48FEF08950E948F010C940002E8
:100300000E94F20138F00E94F90120F0952311F0CB
:100310000C94E9010C94EF0111240C9471010E94DA
:100320004E0170F3959FC1F3950F50E0551F629FEA
:10033000F001729FBB27F00DB11D639FAA27F00D3E
:10034000B11DAA1F649F6627B00DA11D661F829F65
:100350002227B00DA11D621F739FB00DA11D621F4A
:10036000839FA00D611D221F749F3327A00D611D67
:10037000231F849F600D211D822F762F6A2F112449
:100380009F5750409AF0F1F088234AF0EE0FFF1F7C
:10039000BB1F661F771F881F91505040A9F79E3FD3
:1003A000510580F00C94E9010C9471015F3FE4F376
:1003B000983ED4F3869577956795B795F795E79529
:1003C0009F5FC1F7FE2B880F911D9695879597F932
:1003D000089597F99F6780E870E060E008959FEFC7
:1003E00080EC089500240A941616170618060906CC
:1003F000089500240A94121613061406050608959B
:10040000092E0394000C11F4882352F0BB0F40F422
:10041000BF2B11F460FF04C06F5F7F4F8F4F9F4F62
:060420000895F894FFCFDF
:00000001FF
